:020000040800F2
:100000005005002001010008050100080701000853
:10001000090100080B0100080D01000800000000A4
:100020000000000000000000000000000F010008B8
:10003000110100080000000013010008150100086C
:100040001701000817010008170100081701000830
:100050001701000817010008170100081701000820
:100060001701000817010008170100081701000810
:100070001701000817010008170100081701000800
:1000800017010008170100081701000817010008F0
:1000900017010008170100081701000817010008E0
:1000A000170100082D1200081701000817010008A9
:1000B0001701000871120008170100081701000855
:1000C00017010008170100081701000817010008B0
:1000D00017010008E513000819150008B5150008F8
:1000E000170100081701000817010008DFF80CD0FD
:1000F00000F0B2FB00480047D9210008500500205D
:1001000005480047FEE7FEE7FEE7FEE7FEE7FEE7FD
:10011000FEE7FEE7FEE7FEE7ED000008F0B480EA48
:100120000102D40F4200B2EB410F02D20246084650
:1001300011464A0042D0C30DDDB2C1F3C752AD1A19
:10014000202D35DAC1F3160141F4000204B1524208
:10015000C5F1200602FA06F12A411044B3EBD05F44
:1001600023D0C4B1012DA0EBC35009DCF0BC4FF08B
:10017000004202EAC352DBB200F5000000F0E9B928
:10018000400000F1807000EBC350A0F1807040EAA5
:10019000D170490009E0490841EAC071A0EBC350A1
:1001A00000F50000400800EBC350F0BC00F0C8B9F7
:1001B0006142012202EB4101001BF6E7F0BC7047EF
:1001C00081F00041AAE780F00040A7E780EA010241
:1001D00010B502F00043400022D04A001FD0010EAB
:1001E00001EB1261C0F35600C2F3560240F4000066
:1001F00042F40002A0FB022000047F39140400D066
:10020000401C50EA124001D44000491EC2B20C0604
:1002100004EBD010401C4008802A02D003E00020EC
:1002200010BD20F00100002900DA0020184310BDA5
:100230002DE9FE4F81EA030404F0004421F000415F
:1002400000944FF0000B23F0004350EA01045ED00D
:1002500052EA03045BD0C3F30A54C1F30A552C4499
:10026000A4F2F3340194A0FB0254C1F3130141F44E
:100270008011C3F3130343F4801301FB024400FB1A
:10028000034E840A970A44EA815447EA8357A4FB41
:10029000076802958D0A05FB07854FEA932C04FB3E
:1002A0000C542705029D4FEA065847EA1637B5EB6E
:1002B00008056EEB070C870E920E47EA811742EA9B
:1002C0008312A7FB0201B6EB0B0164EB00042B0DBC
:1002D00043EA0C335E1844EB1C50DA465146E7FB08
:1002E0000201C5F313044FEA0B3343EA14534FEAF8
:1002F0000432019C43EA0603A4F10C040294009C1E
:10030000CDE900B400F062F903B0BDE8F08F002041
:100310000146F9E72DE9F04D81EA030404F0004BB2
:1003200021F0004514464FF0000A23F0004150EA46
:10033000050220D054EA01021DD0C5F30A57024637
:10034000C5F31303C1F31300C1F30A5640F480153B
:1003500043F48013A7EB0608101BD64608F2FD38BD
:1003600073EB050002D308F1010801E092185B412C
:10037000B8F1000F03DA00200146BDE8F08D00203F
:100380004FF48011064684460EE0171B73EB0507F9
:1003900005D3121B63EB050306434CEA010C490825
:1003A0004FEA300092185B4150EA0107EDD152EA62
:1003B000030012D082EA040083EA0501084305D055
:1003C000101BAB4106D20122002306E000224FF0B1
:1003D000004302E06FF0010253101AEB06004CEBF1
:1003E000085110EB0A0041EB0B01BDE8F04D00F0A5
:1003F000DEB8C10F80EAE0700844CA0796230021E6
:1004000000F0A7B896230022114600F0A2B80EB55E
:10041000C10F80EAE0700844CA07002140F233436C
:100420008DE80E000A460B4600F0D0F803B000BD80
:1004300000F0004220F00040C10DC0F3160040F46F
:1004400000007F2901DA00207047962903DCC1F102
:100450009601C84001E096398840002AF4D0404215
:10046000704720F00040C10DC0F3160040F40000BA
:100470007F2901DA00207047962903DCC1F196013B
:10048000C840704796398840704700F0004230F00D
:1004900000400AD0C10D01F56071C0F3160042EAB8
:1004A0000151C208400711437047002001467047C0
:1004B00030B5041E71F1000404DB4FF000444042EB
:1004C00064EB0101141E73F1000405DB1C464FF0C0
:1004D0000043524263EB04038B4208BF824230BDAB
:1004E00001F0004330B421F0004150EA010206D08F
:1004F0000A0DA2F56072C1F31301002A02DC30BCC0
:1005000000207047440F44EAC104C100E01830BC29
:1005100000EBC25000F014B8002801DBC0F100402D
:10052000002901DBC1F1004181427047002801DB55
:10053000C0F10040002901DBC1F100418842704751
:100540000029A8BF7047401C490008BF20F00100E7
:10055000704710B4B0FA80FC00FA0CF050EA0104C5
:1005600004BF10BC704749B1CCF1200421FA04F457
:1005700011FA0CF118BF012121430843A3EB0C0130
:10058000CB1D4FEA00614FEA102042BF002010BC93
:10059000704700EBC35010440029A4BF10BC704743
:1005A000401C490008BF20F0010010BC704710B586
:1005B000141E73F1000408DA401C41F10001921886
:1005C0005B411A4301D120F0010010BD2DE9F04D2F
:1005D00092469B4611B1B1FA81F202E0B0FA80F284
:1005E0002032904600F04AF904460F4640EA0A00DD
:1005F00041EA0B0153465A46084313D0114653EAC9
:10060000010019D0C8F14002504600F046F90546F5
:100610000E4650465946424600F030F9084305D090
:10062000012004E020463946BDE8F08D0020054356
:1006300046EAE0762C4337430A986305E40AA0EBC8
:1006400008000022FD0A44EA47540A3002D500207F
:100650000146E9E7010510196941DDE9084500197E
:100660006941BDE8F04DA2E72DE9FE4F804681EAE1
:100670000300C00F0C46009021F0004123F000451C
:10068000B8EB0200A94105D24046214690461C46DF
:100690000B46024623F00040104347D0270DC7F316
:1006A0000A00C3F30A510290401A019040286BDA05
:1006B000C3F3130040F4801B0098924620B100233E
:1006C000D2EB030A63EB0B0B01985946C0F14002D1
:1006D000504600F0D3F806460D4650465946019A5A
:1006E00000F0EBF810EB08006141002487EA11529A
:1006F00084EAE7731A4340D0009A62B3019A012A50
:100700004FEA075215DC001B61EB02014FF000427B
:1007100002EA0752CDE90042001C41F58011324641
:100720002B46FFF753FF03B0BDE8F08F404621464C
:10073000F9E7001B61EB0201001C41F58013001872
:100740005B412018A2F5001747EB030140EAD57082
:10075000B6196D4111E06D084FEA360645EAC075DD
:100760004FEA0752001B61EB0201001C41F58011AA
:1007700049084FEA30000019514132462B4603B078
:10078000BDE8F04FFFF713BF00980122400000239F
:10079000D0EB020263EBE073009821464FEAE0746D
:1007A000B8EB000061EB0401E9E783F000435BE78D
:1007B00081F0004158E72DE9F04D00231A461B1A3D
:1007C0008A4103DB00200146BDE8F08DC1F30A52E7
:1007D000C1F3130141F480154FF0000BD10702D192
:1007E00000186D41521E0027044640F2FF113846A2
:1007F00001EB620A3E468046024600204FF480111B
:1008000000F04BF8C2197141BB1846EB0100B4EB84
:10081000030C75EB000C04D3E41A65EB00051746D6
:100820000E46241908F101006D4180463428E3DDAD
:10083000F91946EB0600091BA84103D24FF0FF321D
:10084000134601E0002213461BEB070046EB0A515A
:10085000BDE8F04DFFF7ABBE064C074D06E0E06883
:1008600040F0010394E8070098471034AC42F6D3F7
:10087000FFF740FC0023000820230008202A04DBA7
:10088000203A00FA02F1002070479140C2F12003A3
:1008900020FA03F3194390407047202A04DB203AE2
:1008A00021FA02F00021704721FA02F3D040C2F190
:1008B00020029140084319467047202A06DBCB17D7
:1008C000203A41FA02F043EAE07306E041FA02F30B
:1008D000D040C2F12002914008431946704770B5DC
:1008E00021F0004303430CD0C1F30A550024D5EB9B
:1008F000040564EB0403D617AD1AB34102DB0020F4
:10090000014670BD201841EB025170BD10B500F0DA
:1009100047F84FF4165001F059F94FF4E13000F068
:100920009FFF4FF4E13000F031F9482144F6206098
:1009300000F006FD482142F2107000F061FA4821F3
:1009400044F6206000F0D2FC00BF0548007830B9C2
:100950000448007818B9044800780028F5D010BD84
:1009600005000020080000200A00002010B5002328
:10097000002105E00948405C184483B2481CC1B21C
:100980000829F7DB0548407A044C247A40EA04221F
:100990009A4201D1012010BD0020FCE74800002050
:1009A0000848806940F008000649886106480068E8
:1009B00020F0FF00044908600846006840F033005A
:1009C0000860704700100240000C014070B50446FA
:1009D0002248016A2046FFF79FFD19D81F48016A87
:1009E0002046FFF7F0FB05461D49FFF79FFD09D2A2
:1009F0001A48016A2046FFF7E6FB05461949FFF74A
:100A0000DFFB70BD1548016A2046FFF7DCFBF8E705
:100A10001249086A1349FFF781FB06462146FFF792
:100A2000CFFB05460E49FFF781FD0DD20B49086A41
:100A30000C49FFF773FB06462146FFF7C1FB05464D
:100A40000849FFF7BDFBDCE70449086A0549FFF7E1
:100A500065FB05462146FFF7B3FBD2E714010020F2
:100A6000000034430000B44310B50020354908703D
:100A7000354800785E2864D1334840780C2860D12E
:100A80003148807802285CD1FFF770FF002858D0E9
:100A900000F018FB2C48C07803281ED100202B49F9
:100AA00008702B4800682B49086029484068486056
:100AB000254840792449097940EA012026490860FF
:100AC0002148C0792049897940EA012022494860BB
:100AD00000F040FB00F026FF33E01B48C0780128FF
:100AE0001BD1194840791849097940EA01201B496E
:100AF00008601548C0791449897940EA01201749EE
:100B000048600120164908700020164908700F49F6
:100B1000087015A001F0BCF813E00B48C078062857
:100B200005D100F069FB13A001F0B2F809E0064816
:100B3000C078022805D100200449087010A001F0F7
:100B4000A7F810BD05000020480000201D0000206F
:100B50002000002028000020300000203800002065
:100B60001C0000201B0000200D0A3261766F6964B2
:100B70000D0A00000D0A3273746F700D0A00000038
:100B80000D0A326164760D0A0000000070B504465B
:100B90002948B0FBF4F63046FFF734FC05462748F9
:100BA000806940F00800254988610846C06940F422
:100BB0008020C8610846406940F00100486108464D
:100BC000006940F4802008610846006920F4802014
:100BD00008611B48006820F47F40194908600846F6
:100BE000006840F40B4008602846FFF73AFC1549BE
:100BF00008804220144948631248001F8863134844
:100C0000C8630846006B43F2810108430E4908633C
:100C10000C480C30008840F040000A490C31088034
:100C2000022327220121002000F090F842F21C004C
:100C30000449091D088070BD0051250200100240C2
:100C4000040C01400848004000000240A2000020BF
:100C50002DE9F0470446D4E90010FFF7B1FAA0608F
:100C60004FF08040E168FFF7B1FA8246A168FFF7D4
:100C7000AAFA81462169FFF751FA8046216AFFF7F7
:100C8000A5FA0646A168E069FFF7A0FA8146D4E913
:100C90000201FFF795FA8246A169FFF797FA8046AD
:100CA0004946FFF73BFA07463146FFF737FA054654
:100CB000E16AFFF733FAE062E0682061A068E06073
:100CC000616AE06AFFF732FC02D2606AE06206E025
:100CD000D4E90A10FFF720FC01D2A06AE062E06AC2
:100CE000BDE8F08700B5002015490861C8601420F0
:100CF000486100208861C8610846006840F0010032
:100D00000860084640680F4908400D494860084699
:100D100000680D4908400A4908600846006820F448
:100D2000802008600846406820F4FE0048600020EB
:100D3000886000214FF0006000F058F800BD00000E
:100D4000001002400000FFF8FFFFF6FE2DE9F04121
:100D50000746884614461D46284600F033F8C5F17C
:100D6000040007FA00F60F20284100EA08000643B5
:100D700006F00F06E21704EBD2625211920002F164
:100D8000E022D2F800212146E31704EBD3635B1184
:100D9000A4EB431C012303FA0CF31A432046E31788
:100DA00004EBD3635B119B0003F1E023C3F8002144
:100DB0000348005D40EA061001490855BDE8F0818E
:100DC00000E400E00146072323EA01021202054B7A
:100DD00018684FF6FF031840034B18431043014BAC
:100DE000186070470CED00E00000FA05024A0A4066
:100DF0000243024B1A60704780FFFF1F08ED00E0BE
:100E0000204AD26942F001021E4BDA611A46926909
:100E100042F008029A611C4A126822F0FF021A4B43
:100E20001A601A46126842F0BB021A60421EDB04C6
:100E30009A854A1E1A851A46128B42F060021A835E
:100E40001A46128B42F008021A831A46128C42F09C
:100E500001021A841A46128B42F4C0421A831A46BF
:100E6000128B42F400621A831A46128C42F010026E
:100E70001A8480221A80D205128842F001021A8058
:100E80007047000000100240000801400022044B9F
:100E90001A70044A106051600022034B1A607047B8
:100EA0001D00002010000020E40000202DE9F04F7C
:100EB00085B02E4909682E4A1268881AFFF799FAF8
:100EC00004902C4949682A4A5268881AFFF791FA17
:100ED00003900498FFF7D9FACDE900010398FFF7D2
:100EE000D4FA8246DDE9002301F088F8804600222A
:100EF000214BFFF79DF90646204A214BFFF70AFADE
:100F00000446FFF7EDFA02904FF47A600299FFF77A
:100F1000BDFF03990846FFF759F981460499084631
:100F2000FFF754F982464946FFF7F8F80446FFF701
:100F3000ACFA074601F06CF905460022114BFFF7A9
:100F4000B7FA10D20A4800680A49086001200E4921
:100F500008700E48007818B901200D49087002E0A9
:100F600001200C49087005B0BDE8F08F300000206A
:100F7000200000202800002000806640A7E8482EBE
:100F8000FF21094000002440190000201A00002021
:100F9000180000201B0000202DE9F04F85B02E49DD
:100FA00009682E4A1268881AFFF723FA04902C4920
:100FB00049682A4A5268881AFFF71BFA0390049876
:100FC000FFF763FACDE900010398FFF75EFA824666
:100FD000DDE9002301F012F880460022214BFFF7E3
:100FE00027F90646204A214BFFF794F90446FFF7FC
:100FF00077FA02904FF47A600299FFF747FF03995E
:101000000846FFF7E3F8814604990846FFF7DEF843
:1010100082464946FFF782F80446FFF736FA07464C
:1010200001F0F6F805460022114BFFF741FA10D205
:101030000A4840680849486001200E4908700E4877
:10104000007818B900200D49087002E001200C4911
:10105000087005B0BDE8F08F2800002020000020B7
:101060003000002000806640A7E8482EFF2109409C
:10107000000024401A000020190000201800002061
:101080001B000020002141608160C1600161704748
:1010900000B50748074988610748C8610020086211
:1010A00006484862064888620846FFF7EBFF00BD25
:1010B0000000C842E40000205C8F423E00401C4615
:1010C00000401CC610B500F05DF9002405E004499D
:1010D000085D00F013FA601CC4B20A2CF7DB10BDE7
:1010E000380100200022144B1A70002809DA42F25D
:1010F000107202444FF080439A8601220F4B1A600F
:1011000005E04FF08043988600220C4B1A600029BE
:101110000ADA42F210720A444FF080431A87012221
:10112000064B1B1D1A6006E04FF080431987002212
:10113000024B1B1D1A6070471D0000208081214258
:101140000348008820F00100014908807047000032
:10115000002C01400348008840F00100014908804C
:1011600070470000002C014030B504460025FFF711
:10117000B9FD1F48006840F480301D49086000BF79
:101180001B480068400C0028FAD04FF480601849D2
:101190004860A01EC4B20846406840EA84404860E7
:1011A0000846406840F4803048601248006840F0CB
:1011B0003200104908600E48006840F080700C4909
:1011C000086000BF0A480068400E0028FAD00848AE
:1011D000406840F002000649486005E00448406865
:1011E000C0F3870505F00305022DF7D130BD0000DF
:1011F000001002400020024010B50120074908708D
:1012000000204FF08041888608870549086005491D
:10121000C1F884010448FFF735FF10BD1D00002010
:101220008081214200802142E400002010B50C485A
:10123000008800F0010060B10A48006814300949D4
:1012400008600948007820B90848007808B900F01B
:1012500069FB0348008820F001000149088010BDA7
:10126000102C01400C0000201D0000201B0000205D
:1012700070B51948008800F0010028B317480078BD
:1012800010BB17480078F8B916494868FFF79EFB6D
:10129000154948600846FFF7DBFC0546FFF7C8F82C
:1012A0000446201E01DB014600E04142B1F5FA7F11
:1012B00002DA0D48FFF7E6FE0A4A1268111B094AD6
:1012C00012681019FFF70EFF0348008820F0010094
:1012D0000149088070BD0000100400401D0000207E
:1012E0001B00002010000020E400002070B505461F
:1012F0000C461148C06940F002000F49C861681EE1
:101300000E490880601E091F08800C48203800889C
:1013100040F0010009492039088002231D220121E3
:101320000846FFF713FD05482C38008840F00100FF
:1013300002492C39088070BD001002402C04004086
:1013400070B505460C460D48806940F400600B49B5
:101350008861681E0A490880601E091F08800848C5
:101360002038008840F00100054920390880022318
:10137000192219461846FFF7E9FC70BD001002401B
:101380002C2C014010B500205E22144B1A700C2248
:101390005A7002229A700422DA70114A12781A7175
:1013A00000225A719A71DA71002105E00B4A525CF1
:1013B000024490B24A1CD1B20729F7DD0246C31796
:1013C00000EB13631B0A054C2372C31700EB136376
:1013D0001B12A0EB0323637210BD00003801002034
:1013E000180000203E49098801F0080141B13C493C
:1013F000091D09883A49098821F00801384A1180F5
:101400003749098801F01001002968D034490C31AE
:10141000098821F02001324A0C32118030490988B4
:10142000304A11702E49091D098811702E49C96D65
:10143000C1F1140111702C49896D21F001012A4A72
:1014400091651421D165274909780A2903D1012121
:10145000264A117035E023490978254A127811444B
:101460000A291ED1002008E02249095C204A12788E
:101470000244214B9954411CC8B21A490978884248
:10148000F2DB002005E01C49095C1A4A1154411C9A
:10149000C8B2144909788842F5DB0121134A11705A
:1014A0000FE010490978124A1170002005E0114937
:1014B000095C114A1154411CC8B20A490978884292
:1014C000F5DB0949896D41F00101074A916504493D
:1014D0000C31098841F02001014A0C32118070471B
:1014E00000380140040000200000024005000020F8
:1014F00006000020480000205C00002000BF0549D5
:10150000098801F040010029F9D00249091D08802D
:1015100070470000003801402248008800F00800B1
:1015200050B1204800881F48001D00881D480088D1
:1015300020F008001B4908801A48008800F01000BD
:1015400070B318480C30008820F0200015490C3189
:10155000088014480088144908701248001D00884B
:1015600008701248C06E20F001001049C866084695
:10157000006FC0F132000C49087001200C4908705E
:1015800032200A4908670846C06E40F00100C8666C
:1015900004480C30008840F0200002490C310880DB
:1015A0007047000000440040070000200000024097
:1015B000080000202DE9F05F9D48008800F0080039
:1015C00040B19B48001D00889948008820F0080021
:1015D000974908809648008800F0100000287DD0C8
:1015E00093480C30008820F0200091490C3108808D
:1015F0008F4800888F4908708D48001D008808704A
:101600008D48406BC0F1420008708B48006B20F0A1
:1016100001008949086342204863864800782128F0
:101620007ED10120854908708548407851285BD1DA
:101630008349C978090209B2814A927841EA0200D5
:10164000FEF7E5FE064600227E4BFEF763FE0446EB
:1016500000227D4BFEF7ECFD82467C4A7C4BFEF778
:10166000E7FD8046FEF73CFF7A49086074494979F6
:10167000090209B2724A127941EA0200FEF7C7FE76
:10168000804600226F4BFEF745FE064600226E4B59
:10169000FEF7CEFD04466D4A6D4BFEF7C9FD82464E
:1016A000FEF71EFF6B4948606549C979090209B216
:1016B000634A927941EA0200FEF7A9FE80460022C1
:1016C000604BFEF727FE064600225F4BFEF7B0FD9B
:1016D00004465E4A5E4BFEF7ABFD00E0A6E08246A4
:1016E000FEF7FEFE5B4988605548007B522846D1D4
:1016F0005349497B524A927B41EA0220FEF787FE1A
:10170000804600224F4BFEF705FE06460022524B54
:10171000FEF78EFD0446FEF7E3FE4E49C86000E08A
:1017200076E04749C97B464A127C41EA0220FEF72F
:101730006EFE80460022434BFEF7ECFD064600227B
:10174000454BFEF775FD0446FEF7CAFE41490861A8
:101750003B49497C3A4A927C41EA0220FEF757FE17
:1017600080460022374BFEF7D5FD064600223A4B55
:10177000FEF75EFD0446FEF7B3FE36494861304889
:10178000C07D532844D12E49097E2D4A527E41EA1C
:101790000220FEF73CFE804600222A4BFEF7BAFDEF
:1017A000064600222D4BFEF743FD0446FEF798FE49
:1017B000284988612249897E214AD27E41EA022055
:1017C000FEF725FE064600221E4BFEF7A3FD8046CF
:1017D0000022224BFEF72CFD0446FEF781FE1D4938
:1017E000C8611749097F164A527F41EA0220FEF775
:1017F0000EFE80460022134BFEF78CFD06460022AB
:10180000164BFEF715FD0446FEF76AFE1149086205
:101810000948006B40F001000749086304480C3098
:10182000008840F0200002490C310880BDE8F09F9C
:101830000048004009000020000002400A0000208B
:10184000A20000200000E040000030409A999999E1
:10185000999923401401002000409F400080664079
:1018600070B504462948B0FBF4F63046FEF7CAFDD1
:1018700005462748806940F00400254988610846EC
:10188000C06940F40030C8610846406940F001007A
:1018900048610846006940F4003008610846006964
:1018A00020F4003008611B48006820F47F4019498B
:1018B00008600846006840F40B4008602846FEF7C0
:1018C000D0FD154908803220144908671248001FCE
:1018D0004867134888670846C06E43F28101084391
:1018E0000E49C8660C480C30008840F040000A4998
:1018F0000C3108800223262200210846FFF726FA31
:1019000042F21C000449091D088070BD00512502E7
:10191000001002400008014008440040000002405E
:10192000700000202DE9F04F85B06D480078002848
:101930005AD06C4909686C4A1268881AFEF759FD3A
:10194000834668494968684A5268881AFEF751FD1B
:1019500004905846FEF799FD804689460498FEF7A4
:1019600094FD42464B46CDE9000100F047FB0022C2
:101970005E4BCDE90201FEF75BFC06465C4A5D4B1F
:10198000FEF7C8FC0446FEF7ABFD82460499084604
:10199000FEF71CFC814659465846FEF717FC49469F
:1019A0000390FEF7BBFB8046FEF76FFD064600F096
:1019B0002FFC04460022504BFEF77AFD0ED24A4817
:1019C00000684E49086048484068486000204C491B
:1019D00008704C490870424908707DE051464FF448
:1019E0007A60FFF753FA77E0474909683E4A126880
:1019F000881AFEF7FEFC8346434949683A4A526812
:101A0000881AFEF7F6FC049004990846FEF7DEFB00
:101A1000814659465846FEF7D9FB49460390FEF7E2
:101A20007DFB8046FEF731FD064600F0F1FB0446E3
:101A30000022314BFEF73CFD07D2FFF7DDFBFFF73D
:101A40007FFB01203149087046E004990846FEF703
:101A5000BDFB814659465846FEF7B8FB4946039000
:101A6000FEF75CFB8046FEF710FD064600F0D0FB5B
:101A700004460022264BFEF71BFD21D25846FEF7F6
:101A800004FDCDE900010498FEF7FFFC8046DDE986
:101A9000002300F0B3FA0022144BCDE90201FEF757
:101AA000C7FB0646124A134BFEF734FC0446FEF70A
:101AB00017FD824651464FF47A60FFF7E7F90BE0D5
:101AC0001448007810B9FFF7F1F905E011480078E3
:101AD000012801D1FFF760FA05B0BDE8F08F0000E2
:101AE0001C000020380000202000002000806640FC
:101AF000A7E8482EFF2109400000244028000020CC
:101B0000190000201A000020300000201B000020D7
:101B1000000049401800002030B5002100220123B8
:101B20000024274D2C70002006E0264C245C2D2C30
:101B300001D14FF0FF33401C224C245C302CF4DBED
:101B4000204C245C392CF0DC08E01E4C245C01EBBA
:101B5000810504EB4504A4F13001401C194C245CC0
:101B6000302C03DB174C245C392CEEDD5943012368
:101B700006E0144C245C2D2C01D14FF0FF33401CA7
:101B8000104C245C302CF4DB0E4C245C392CF0DC43
:101B900008E00C4C245C02EB820504EB4504A4F144
:101BA0003002401C074C245C302C03DB054C245CC9
:101BB000392CEEDD5A43044C2160626030BD0000D8
:101BC00008000020700000202000002070B50446AE
:101BD0002948B0FBF4F63046FEF714FC05462748CA
:101BE000806940F00400254988610846806940F416
:101BF000804088610846406940F00100486108461D
:101C0000C06840F48040C8600846C06820F4804046
:101C1000C8601B48006820F47F60194908600846C6
:101C2000006840F40B6008602846FEF71AFC15496E
:101C3000088014201449C8651248001F086613481C
:101C400048660846806D43F2810108430E49886565
:101C50000C480C30008840F040000A490C310880E4
:101C60000223252200210120FFF770F842F21C0018
:101C70000449091D088070BD00A24A0400100240FA
:101C800004080140083801400000024048000020DC
:101C9000014A024900F090B8BD2100084000002030
:101CA000490050EAC12018BF04204A0D18BF40F077
:101CB000010040F2FF72B2EB515F08BF40F002003A
:101CC000012808BF052070472DE9F0414F1E00EBA9
:101CD000C7010446D1E9000115461E4637F0060249
:101CE0000DD02A463346FEF7A3FA7F1E04EBC70346
:101CF000D3E90023FEF7B8FC37F00602F1D1022F3A
:101D000025D0042F13D0062F18BFBDE8F0812A4636
:101D10003346FEF78DFAD4E90A23FEF7A5FC2A46DE
:101D20003346FEF785FAD4E90823FEF79DFC2A46E0
:101D30003346FEF77DFAD4E90623FEF795FC2A46E2
:101D40003346FEF775FAD4E90423FEF78DFC2A46E4
:101D50003346FEF76DFAD4E90223FEF785FC2A46E6
:101D60003346FEF765FAD4E90023BDE8F041FEF7FB
:101D70007BBC0122FEF7B3BDFEF776BC024A002011
:101D80001107FEF7ACBD000001FDFFFF02E008C82F
:101D9000121F08C1002AFAD170477047002001E0E5
:101DA00001C1121F002AFBD17047000001490860E1
:101DB00070470000440000202DE9F04116460F4610
:101DC0000446002503E03946B047641C6D1C2078AA
:101DD0000028F8D12846BDE8F08100002DE9F84F31
:101DE00004460D4621F0004000917349814211DC08
:101DF0007249884201DC06D12CB120462946BDE853
:101E0000F84FFFF7B6BF6E48002DCCBF6D496E4945
:101E1000BDE8F88F6D49814211DD6D498142D8BF1F
:101E20004FF0FF366DDD20462946FFF739FF0428C5
:101E300008BFFFF7A3FF20462946BDE8F88F654994
:101E4000654F25F00045814233DD6449814219DD4B
:101E5000002632464FF0804320462946FEF704FC18
:101E600080468A46012220462946FEF738FD002298
:101E70003B46FEF79AFC42465346FEF74BFA0446B1
:101E80000D463EE001260022BA463B462046294642
:101E9000FEF7EAFB80460F460022534620462946BD
:101EA000FEF783FC42463B46FEF734FA04460D46F5
:101EB00027E04B4981421BDDDFF828A102260022E2
:101EC000534620462946FEF7B3F900223B46FEF76B
:101ED000CBFB80460F460022534620462946FEF79C
:101EE00064FC42463B46FEF715FA04460D4608E000
:101EF000032622462B4600203B49FEF70BFA0446F8
:101F00000D4622462B4610461946FEF791F98B46A0
:101F1000824602460B46FEF78BF9074602463348D7
:101F200088460B4606217844FFF7CEFE52465B46B4
:101F3000FEF77EF982462E488B463A4643460521F7
:101F40007844FFF7C1FE3A464346FEF771F9024670
:101F50000B46002E504659460CDAFEF785FB22460A
:101F60002B46FEF765F901B022462B46BDE8F04F3F
:101F7000FEF71EBCFEF778FB22462B46FEF758F90B
:101F80001C4A7A4402EBC603D3E90023FEF70DFC9A
:101F900022462B46FEF709FC174A7A4402EBC60399
:101FA000D3E90023FEF704FC009A002AB8BF81F0B1
:101FB0000041BDE8F88F0000000010440000F07FF1
:101FC000182D4454FB21F93FFB21F9BF0000DC3FF1
:101FD0000000203E0000F33F0000F03F0000E63F1D
:101FE000008003400000F83F0000F0BF9E030000A7
:101FF0005C030000FA020000C20200002DE9F04D6F
:102000009446CCF1000423F000464CEA0404524FFD
:1020100046EAD4749A46884621F00042BC4206D86B
:10202000454240EA050442EAD474BC4204D9BDE802
:10203000F04D6246FFF7A0BEAAF14055A5F17F65BD
:1020400055EA0C040BD0022404EAAA74434DDFF8CD
:1020500010E144EAD87452EA000B04D00CE0BDE869
:10206000F04DFFF7BBBE002C14BF012CBDE8F08D76
:10207000022C30D0032C32D056EA0C0B0AD0BE42D0
:1020800020D1BA4209D126F0804622F08042334660
:10209000114617E000291ADB25E0DFF8C8B0FB4441
:1020A000002C04BFDBE90001BDE8F08D012C02BF6C
:1020B000DBE9000181F00041BDE8F08D022C0AD07F
:1020C000032C0CD0BA4212D1B8F1000F0BDA23481E
:1020D0002549BDE8F08D28462449BDE8F08D284605
:1020E0007146BDE8F08D1D482149BDE8F08D921B79
:1020F00012153C2AC4BF19481D490EDCBAF1000F65
:10210000BEBF12F13C0F0020014606DB6246FEF71F
:1021100001F921F00041FFF761FE002C08BFBDE886
:10212000F08D012C04BF81F00041BDE8F08D114A13
:10213000114B022C07D0FEF738FB2A46BDE8F04DC4
:102140000A4BFEF732BBFEF730FB2A46BDE8F04DE6
:10215000064BFEF72DBB00000000F07F182D445405
:10216000FB2109C056020000FB21F9BFFB210940F9
:10217000FB21F93F075C143326A6A13C4FF0E02178
:10218000096921F004014FF0E0221161C21700EB50
:102190005272C2F3C702074B1A701946097801EB55
:1021A0004102C2EBC1114FF6FF7202EAC101024ABD
:1021B00011807047000000200200002000BF054A87
:1021C000128802F04002002AF9D0C2B2014B1B1D56
:1021D0001A807047003801400920FEF7C5FF4820EB
:1021E000FFF7CCFFFEF792FBFEF752FFFFF704F874
:1021F00009E00548007808B1FFF78EFC0348007835
:1022000008B1FEF731FCF4E70800002005000020CB
:102210002DE9F04106460F46FEF7CDFA04000D46C3
:1022200018BF0120284320F00040C0F17F6000F17A
:10223000E040C00F0ED0301C18BF0120384320F002
:102240000040C0F17F6000F1E040C00F04BF0120FA
:10225000FFF7ACFD20462946BDE8F08100000000F4
:102260004FBB610567ACDD3F182D4454FB21E93FAE
:102270009BF681D20B73EF3F182D4454FB21F93F9D
:10228000E2652F227F2B7A3C075C143326A6813C23
:10229000BDCBF07A8807703C075C143326A6913CCE
:1022A000C4EB98999999C9BF711623FEC671BCBF3A
:1022B0006D9A74AFF2B0B3BF9AFDDE522DDEADBFA2
:1022C0002F6C6A2C44B4A2BF0D5555555555D53FBA
:1022D000FF8300922449C23F6E204CC5CD45B73FD5
:1022E000513DD0A0660DB13FEB0D76244B7BA93F4D
:1022F00011DA22E33AAD903F000000000000000038
:102300002023000800000020480000008C1D000869
:102310006823000848000020080500009C1D0008F4
:1023200000000000000000000000000000000000AD
:10233000000000000000000001000000000000009C
:10234000000000000000000000000000000000008D
:10235000000000000000000000000000000000007D
:08236000000000000000000075
:04000005080000ED02
:00000001FF
