:020000040800F2
:100000003005002001010008050100080701000873
:10001000090100080B0100080D01000800000000A4
:100020000000000000000000000000000F010008B8
:10003000110100080000000013010008150100086C
:100040001701000817010008170100081701000830
:100050001701000817010008170100081701000820
:100060001701000817010008170100081701000810
:100070001701000817010008170100081701000800
:1000800017010008170100081701000817010008F0
:1000900017010008170100081701000817010008E0
:1000A00017010008ED0F00081701000817010008EC
:1000B0001701000831100008170100081701000897
:1000C00017010008170100081701000817010008B0
:1000D000170100088D110008C11200085D13000807
:1000E000170100081701000817010008DFF80CD0FD
:1000F00000F0B2FB00480047FD1D0008300500205D
:1001000005480047FEE7FEE7FEE7FEE7FEE7FEE7FD
:10011000FEE7FEE7FEE7FEE7ED000008F0B480EA48
:100120000102D40F4200B2EB410F02D20246084650
:1001300011464A0042D0C30DDDB2C1F3C752AD1A19
:10014000202D35DAC1F3160141F4000204B1524208
:10015000C5F1200602FA06F12A411044B3EBD05F44
:1001600023D0C4B1012DA0EBC35009DCF0BC4FF08B
:10017000004202EAC352DBB200F5000000F0E9B928
:10018000400000F1807000EBC350A0F1807040EAA5
:10019000D170490009E0490841EAC071A0EBC350A1
:1001A00000F50000400800EBC350F0BC00F0C8B9F7
:1001B0006142012202EB4101001BF6E7F0BC7047EF
:1001C00081F00041AAE780F00040A7E780EA010241
:1001D00010B502F00043400022D04A001FD0010EAB
:1001E00001EB1261C0F35600C2F3560240F4000066
:1001F00042F40002A0FB022000047F39140400D066
:10020000401C50EA124001D44000491EC2B20C0604
:1002100004EBD010401C4008802A02D003E00020EC
:1002200010BD20F00100002900DA0020184310BDA5
:100230002DE9FE4F81EA030404F0004421F000415F
:1002400000944FF0000B23F0004350EA01045ED00D
:1002500052EA03045BD0C3F30A54C1F30A552C4499
:10026000A4F2F3340194A0FB0254C1F3130141F44E
:100270008011C3F3130343F4801301FB024400FB1A
:10028000034E840A970A44EA815447EA8357A4FB41
:10029000076802958D0A05FB07854FEA932C04FB3E
:1002A0000C542705029D4FEA065847EA1637B5EB6E
:1002B00008056EEB070C870E920E47EA811742EA9B
:1002C0008312A7FB0201B6EB0B0164EB00042B0DBC
:1002D00043EA0C335E1844EB1C50DA465146E7FB08
:1002E0000201C5F313044FEA0B3343EA14534FEAF8
:1002F0000432019C43EA0603A4F10C040294009C1E
:10030000CDE900B400F062F903B0BDE8F08F002041
:100310000146F9E72DE9F04D81EA030404F0004BB2
:1003200021F0004514464FF0000A23F0004150EA46
:10033000050220D054EA01021DD0C5F30A57024637
:10034000C5F31303C1F31300C1F30A5640F480153B
:1003500043F48013A7EB0608101BD64608F2FD38BD
:1003600073EB050002D308F1010801E092185B412C
:10037000B8F1000F03DA00200146BDE8F08D00203F
:100380004FF48011064684460EE0171B73EB0507F9
:1003900005D3121B63EB050306434CEA010C490825
:1003A0004FEA300092185B4150EA0107EDD152EA62
:1003B000030012D082EA040083EA0501084305D055
:1003C000101BAB4106D20122002306E000224FF0B1
:1003D000004302E06FF0010253101AEB06004CEBF1
:1003E000085110EB0A0041EB0B01BDE8F04D00F0A5
:1003F000DEB8C10F80EAE0700844CA0796230021E6
:1004000000F0A7B896230022114600F0A2B80EB55E
:10041000C10F80EAE0700844CA07002140F233436C
:100420008DE80E000A460B4600F0D0F803B000BD80
:1004300000F0004220F00040C10DC0F3160040F46F
:1004400000007F2901DA00207047962903DCC1F102
:100450009601C84001E096398840002AF4D0404215
:10046000704720F00040C10DC0F3160040F40000BA
:100470007F2901DA00207047962903DCC1F196013B
:10048000C840704796398840704700F0004230F00D
:1004900000400AD0C10D01F56071C0F3160042EAB8
:1004A0000151C208400711437047002001467047C0
:1004B00030B5041E71F1000404DB4FF000444042EB
:1004C00064EB0101141E73F1000405DB1C464FF0C0
:1004D0000043524263EB04038B4208BF824230BDAB
:1004E00001F0004330B421F0004150EA010206D08F
:1004F0000A0DA2F56072C1F31301002A02DC30BCC0
:1005000000207047440F44EAC104C100E01830BC29
:1005100000EBC25000F014B8002801DBC0F100402D
:10052000002901DBC1F1004181427047002801DB55
:10053000C0F10040002901DBC1F100418842704751
:100540000029A8BF7047401C490008BF20F00100E7
:10055000704710B4B0FA80FC00FA0CF050EA0104C5
:1005600004BF10BC704749B1CCF1200421FA04F457
:1005700011FA0CF118BF012121430843A3EB0C0130
:10058000CB1D4FEA00614FEA102042BF002010BC93
:10059000704700EBC35010440029A4BF10BC704743
:1005A000401C490008BF20F0010010BC704710B586
:1005B000141E73F1000408DA401C41F10001921886
:1005C0005B411A4301D120F0010010BD2DE9F04D2F
:1005D00092469B4611B1B1FA81F202E0B0FA80F284
:1005E0002032904600F04AF904460F4640EA0A00DD
:1005F00041EA0B0153465A46084313D0114653EAC9
:10060000010019D0C8F14002504600F046F90546F5
:100610000E4650465946424600F030F9084305D090
:10062000012004E020463946BDE8F08D0020054356
:1006300046EAE0762C4337430A986305E40AA0EBC8
:1006400008000022FD0A44EA47540A3002D500207F
:100650000146E9E7010510196941DDE9084500197E
:100660006941BDE8F04DA2E72DE9FE4F804681EAE1
:100670000300C00F0C46009021F0004123F000451C
:10068000B8EB0200A94105D24046214690461C46DF
:100690000B46024623F00040104347D0270DC7F316
:1006A0000A00C3F30A510290401A019040286BDA05
:1006B000C3F3130040F4801B0098924620B100233E
:1006C000D2EB030A63EB0B0B01985946C0F14002D1
:1006D000504600F0D3F806460D4650465946019A5A
:1006E00000F0EBF810EB08006141002487EA11529A
:1006F00084EAE7731A4340D0009A62B3019A012A50
:100700004FEA075215DC001B61EB02014FF000427B
:1007100002EA0752CDE90042001C41F58011324641
:100720002B46FFF753FF03B0BDE8F08F404621464C
:10073000F9E7001B61EB0201001C41F58013001872
:100740005B412018A2F5001747EB030140EAD57082
:10075000B6196D4111E06D084FEA360645EAC075DD
:100760004FEA0752001B61EB0201001C41F58011AA
:1007700049084FEA30000019514132462B4603B078
:10078000BDE8F04FFFF713BF00980122400000239F
:10079000D0EB020263EBE073009821464FEAE0746D
:1007A000B8EB000061EB0401E9E783F000435BE78D
:1007B00081F0004158E72DE9F04D00231A461B1A3D
:1007C0008A4103DB00200146BDE8F08DC1F30A52E7
:1007D000C1F3130141F480154FF0000BD10702D192
:1007E00000186D41521E0027044640F2FF113846A2
:1007F00001EB620A3E468046024600204FF480111B
:1008000000F04BF8C2197141BB1846EB0100B4EB84
:10081000030C75EB000C04D3E41A65EB00051746D6
:100820000E46241908F101006D4180463428E3DDAD
:10083000F91946EB0600091BA84103D24FF0FF321D
:10084000134601E0002213461BEB070046EB0A515A
:10085000BDE8F04DFFF7ABBE064C074D06E0E06883
:1008600040F0010394E8070098471034AC42F6D3F7
:10087000FFF740FC281F0008481F0008202A04DB5F
:10088000203A00FA02F1002070479140C2F12003A3
:1008900020FA03F3194390407047202A04DB203AE2
:1008A00021FA02F00021704721FA02F3D040C2F190
:1008B00020029140084319467047202A06DBCB17D7
:1008C000203A41FA02F043EAE07306E041FA02F30B
:1008D000D040C2F12002914008431946704770B5DC
:1008E00021F0004303430CD0C1F30A550024D5EB9B
:1008F000040564EB0403D617AD1AB34102DB0020F4
:10090000014670BD201841EB025170BD10B500F0DA
:1009100047F84FF4165000F093FF4FF4E13000F029
:1009200073FE4FF4E13000F0D1F8482144F6206026
:1009300000F0E0FB482142F2107000F001FA48217B
:1009400044F6206000F0ACFB00BF0548007830B9E9
:100950000448007818B9044800780028F5D010BD84
:1009600005000020080000200A00002010B5002328
:10097000002105E00948405C184483B2481CC1B21C
:100980000629F7DB0548C079044CA47940EA042223
:100990009A4201D1012010BD0020FCE74000002058
:1009A0000848806940F008000649886106480068E8
:1009B00020F0FF00044908600846006840F033005A
:1009C0000860704700100240000C014070B50446FA
:1009D0002248016A2046FFF79FFD19D81F48016A87
:1009E0002046FFF7F0FB05461D49FFF79FFD09D2A2
:1009F0001A48016A2046FFF7E6FB05461949FFF74A
:100A0000DFFB70BD1548016A2046FFF7DCFBF8E705
:100A10001249086A1349FFF781FB06462146FFF792
:100A2000CFFB05460E49FFF781FD0DD20B49086A41
:100A30000C49FFF773FB06462146FFF7C1FB05464D
:100A40000849FFF7BDFBDCE70449086A0549FFF7E1
:100A500065FB05462146FFF7B3FBD2E70C010020FA
:100A6000000034430000B44310B50020144908705E
:100A700014480078012822D1FFF778FFF8B100F080
:100A8000D5F91048407810B900F096FA17E00D48F3
:100A90004078012813D10B48C0780A49897840EA88
:100AA000012009490860074840790649097940EA68
:100AB00001200549486000F02DFA00F007FE10BD46
:100AC00005000020400000202400002070B50446EE
:100AD0002948B0FBF4F63046FFF794FC054627485A
:100AE000806940F00800254988610846C06940F4E3
:100AF0008020C8610846406940F00100486108460E
:100B0000006940F4802008610846006920F48020D4
:100B100008611B48006820F47F40194908600846B6
:100B2000006840F40B4008602846FFF79AFC15491E
:100B300008804220144948631248001F8863134804
:100B4000C8630846006B43F2810108430E490863FD
:100B50000C480C30008840F040000A490C310880F5
:100B6000022327220121002000F090F842F21C000D
:100B70000449091D088070BD005125020010024083
:100B8000040C014008480040000002409A00002088
:100B90002DE9F0470446D4E90010FFF711FBA060EF
:100BA0004FF08040E168FFF711FB8246A168FFF734
:100BB0000AFB81462169FFF7B1FA8046216AFFF7F7
:100BC00005FB0646A168E069FFF700FB8146D4E912
:100BD0000201FFF7F5FA8246A169FFF7F7FA8046AE
:100BE0004946FFF79BFA07463146FFF797FA054655
:100BF000E16AFFF793FAE062E0682061A068E060D4
:100C0000616AE06AFFF792FC02D2606AE06206E085
:100C1000D4E90A10FFF780FC01D2A06AE062E06A22
:100C2000BDE8F08700B5002015490861C8601420B0
:100C3000486100208861C8610846006840F00100F2
:100C40000860084640680F4908400D49486008465A
:100C500000680D4908400A4908600846006820F409
:100C6000802008600846406820F4FE0048600020AC
:100C7000886000214FF0006000F058F800BD0000CF
:100C8000001002400000FFF8FFFFF6FE2DE9F041E2
:100C90000746884614461D46284600F033F8C5F13D
:100CA000040007FA00F60F20284100EA0800064376
:100CB00006F00F06E21704EBD2625211920002F125
:100CC000E022D2F800212146E31704EBD3635B1145
:100CD000A4EB431C012303FA0CF31A432046E31749
:100CE00004EBD3635B119B0003F1E023C3F8002105
:100CF0000348005D40EA061001490855BDE8F0814F
:100D000000E400E00146072323EA01021202054B3A
:100D100018684FF6FF031840034B18431043014B6C
:100D2000186070470CED00E00000FA05024A0A4026
:100D30000243024B1A60704780FFFF1F08ED00E07E
:100D4000204AD26942F001021E4BDA611A469269CA
:100D500042F008029A611C4A126822F0FF021A4B04
:100D60001A601A46126842F0BB021A60421EDB0487
:100D70009A854A1E1A851A46128B42F060021A831F
:100D80001A46128B42F008021A831A46128C42F05D
:100D900001021A841A46128B42F4C0421A831A4680
:100DA000128B42F400621A831A46128C42F010022F
:100DB0001A8480221A80D205128842F001021A8019
:100DC0007047000000100240000801400022044B60
:100DD0001A70044A106051600022034B1A60704779
:100DE0001800002010000020DC00002000214160DD
:100DF0008160C1600161704700B50748074988619B
:100E00000748C861002008620648486206488862B0
:100E10000846FFF7EBFF00BD00003C42DC0000206D
:100E20005C8F423E00401C4600401CC610B50024AA
:100E300005E00449085D00F035FA601CC4B2082CD6
:100E4000F7DB10BD2C00002070B5002501201349F0
:100E500008700420487012480088000A8870104802
:100E60000078C8700E488088000A08710C48007924
:100E70004871002408E00948005D05440749085D01
:100E800000F010FA601CC4B2062CF4DBC5F3072096
:100E900000F008FAE8B200F005FA70BD3400002056
:100EA0001C0000200022144B1A70002809DA42F2BC
:100EB000107202444FF080439A8601220F4B1A6051
:100EC00005E04FF08043988600220C4B1A60002901
:100ED0000ADA42F210720A444FF080431A87012264
:100EE000064B1B1D1A6006E04FF080431987002255
:100EF000024B1B1D1A6070471800002080812142A0
:100F00000348008820F00100014908807047000074
:100F1000002C01400348008840F00100014908808E
:100F200070470000002C014030B504460025FFF753
:100F300079FE1F48006840F480301D49086000BFFA
:100F40001B480068400C0028FAD04FF48060184914
:100F50004860A01EC4B20846406840EA8440486029
:100F60000846406840F4803048601248006840F00D
:100F70003200104908600E48006840F080700C494B
:100F8000086000BF0A480068400E0028FAD00848F0
:100F9000406840F002000649486005E004484068A7
:100FA000C0F3870505F00305022DF7D130BD000021
:100FB000001002400020024010B5012007490870CF
:100FC00000204FF080418886088705490860054960
:100FD000C1F884010448FFF709FF10BD1800002084
:100FE0008081214200802142DC00002010B50E48A3
:100FF000008800F0010080B10C48006814300B49F3
:10100000086008460068C82190FBF1F201FB12005D
:1010100018B900F05BFBFFF717FF0348008820F0CA
:1010200001000149088010BD102C01400C00002077
:1010300070B51748008800F0010010B3154800781B
:10104000F8B915494868FFF7C1FC144948600846DB
:10105000FFF79EFD0546FFF7EBF90446201E01DB76
:10106000014600E04142B1F5FA7F02DA0B48FFF792
:10107000BDFE094A1268111B074A12681019FFF7D2
:1010800011FF0348008820F001000149088070BD6D
:10109000100400401800002010000020DC00002098
:1010A00070B505460C461148C06940F002000F4972
:1010B000C861681E0E490880601E091F08800C4820
:1010C0002038008840F001000949203908800223B7
:1010D0001D2201210846FFF7D9FD05482C3800885C
:1010E00040F0010002492C39088070BD0010024018
:1010F0002C04004070B505460C460D48806940F44C
:1011000000600B498861681E0A490880601E091F3B
:10111000088008482038008840F00100054920393F
:1011200008800223192219461846FFF7AFFD70BD4B
:10113000001002402C2C014010B500200122124B5F
:101140001A7003225A7065229A703622DA7052227F
:101150001A7130225A71002105E00B4A525C024498
:1011600090B24A1CD1B20529F7DD0246C31700EB45
:1011700013631B0A044CA371C31700EB13631B1208
:10118000A0EB0323E37110BD2C0000203E49098829
:1011900001F0080141B13C49091D09883A49098813
:1011A00021F00801384A11803749098801F01001FF
:1011B000002968D034490C31098821F02001324AD5
:1011C0000C32118030490988304A11702E49091DAE
:1011D000098811702E49C96DC1F1140111702C4993
:1011E000896D21F001012A4A91651421D1652749B1
:1011F0000978082903D10121264A117035E02349D5
:101200000978254A1278114408291ED1002008E0E7
:101210002249095C204A12780244214B9954411C0E
:10122000C8B21A4909788842F2DB002005E01C495F
:10123000095C1A4A1154411CC8B214490978884201
:10124000F5DB0121134A11700FE010490978124AA9
:101250001170002005E01149095C114A1154411C2C
:10126000C8B20A4909788842F5DB0949896D41F01D
:101270000101074A916504490C31098841F02001B8
:10128000014A0C32118070470038014004000020F0
:101290000000024005000020060000204000002061
:1012A0005400002000BF0549098801F040010029D1
:1012B000F9D00249091D088070470000003801403C
:1012C0002248008800F0080050B1204800881F48DC
:1012D000001D00881D48008820F008001B49088078
:1012E0001A48008800F0100070B318480C300088CD
:1012F00020F0200015490C3108801448008814495A
:1013000008701248001D008808701248C06E20F056
:1013100001001049C8660846006FC0F132000C4950
:10132000087001200C49087032200A4908670846F5
:10133000C06E40F00100C86604480C30008840F0E0
:10134000200002490C310880704700000044004032
:101350000700002000000240080000202DE9F05F97
:101360009D48008800F0080040B19B48001D00889F
:101370009948008820F0080097490880964800881E
:1013800000F0100000287DD093480C30008820F039
:10139000200091490C3108808F4800888F490870DF
:1013A0008D48001D008808708D48406BC0F14200D8
:1013B00008708B48006B20F00100894908634220C7
:1013C00048638648007821287ED10120854908702D
:1013D0008548407851285BD18349C978090209B210
:1013E000814A927841EA0200FFF711F8064600228E
:1013F0007E4BFEF78FFF044600227D4BFEF718FF61
:1014000082467C4A7C4BFEF713FF8046FFF768F864
:101410007A49086074494979090209B2724A127915
:1014200041EA0200FEF7F3FF804600226F4BFEF711
:1014300071FF064600226E4BFEF7FAFE04466D4A27
:101440006D4BFEF7F5FE8246FFF74AF86B494860A0
:101450006549C979090209B2634A927941EA0200F1
:10146000FEF7D5FF80460022604BFEF753FF06468D
:1014700000225F4BFEF7DCFE04465E4A5E4BFEF741
:10148000D7FE00E0A6E08246FFF72AF85B498860B5
:101490005548007B522846D15349497B524A927B9A
:1014A00041EA0220FEF7B3FF804600224F4BFEF7D1
:1014B00031FF06460022524BFEF7BAFE0446FFF704
:1014C0000FF84E49C86000E076E04749C97B464ABC
:1014D000127C41EA0220FEF79AFF80460022434B2D
:1014E000FEF718FF06460022454BFEF7A1FE044614
:1014F000FEF7F6FF414908613B49497C3A4A927C34
:1015000041EA0220FEF783FF80460022374BFEF7B8
:1015100001FF064600223A4BFEF78AFE0446FEF71C
:10152000DFFF364948613048C07D532844D12E49F9
:10153000097E2D4A527E41EA0220FEF768FF80466E
:1015400000222A4BFEF7E6FE064600222D4BFEF750
:101550006FFE0446FEF7C4FF284988612249897E50
:10156000214AD27E41EA0220FEF751FF06460022C0
:101570001E4BFEF7CFFE80460022224BFEF758FEA0
:101580000446FEF7ADFF1D49C8611749097F164A99
:10159000527F41EA0220FEF73AFF80460022134BB9
:1015A000FEF7B8FE06460022164BFEF741FE044643
:1015B000FEF796FF114908620948006B40F00100F0
:1015C0000749086304480C30008840F020000249B5
:1015D0000C310880BDE8F09F004800400900002061
:1015E000000002400A0000209A0000200000E040B5
:1015F000000030409A999999999923400C01002054
:1016000000409F400080664070B504462948B0FB0A
:10161000F4F63046FEF7F6FE05462748806940F0AE
:101620000400254988610846C06940F40030C8615B
:101630000846406940F0010048610846006940F4EE
:10164000003008610846006920F4003008611B483A
:10165000006820F47F40194908600846006840F49B
:101660000B4008602846FEF7FCFE15490880322032
:10167000144908671248001F4867134888670846DE
:10168000C06E43F2810108430E49C8660C480C3015
:10169000008840F040000A490C31088002232622CD
:1016A00000210846FFF7F2FA42F21C000449091D26
:1016B000088070BD00512502001002400008014062
:1016C0000844004000000240680000202DE9F04F6F
:1016D00085B028490968284A1268881AFEF789FEE9
:1016E000049024494968244A5268881AFEF781FE0A
:1016F00003900498FEF7C9FECDE900010398FEF7B8
:10170000C4FE8246DDE9002300F098FA80460022FC
:101710001A4BFEF78DFD0646194A1A4BFEF7FAFDE5
:101720000446FEF7DDFE029003990846FEF74EFDE3
:10173000814604990846FEF749FD82464946FEF770
:10174000EDFC0446FEF7A1FE074600F075FB0546DA
:1017500000220D4BFEF7ACFE04D2FFF72DFCFFF785
:10176000CFFB04E04FF4FA500299FFF72FFB05B0CE
:10177000BDE8F08F240000201C000020008066409F
:10178000A7E8482EFF2109400000244030B5002181
:10179000002201230024274D2C70002006E0264C57
:1017A000245C2D2C01D14FF0FF33401C224C245CD3
:1017B000302CF4DB204C245C392CF0DC08E01E4C8F
:1017C000245C01EB810504EB4504A4F13001401CCD
:1017D000194C245C302C03DB174C245C392CEEDDD7
:1017E0005943012306E0144C245C2D2C01D14FF009
:1017F000FF33401C104C245C302CF4DB0E4C245C7A
:10180000392CF0DC08E00C4C245C02EB820504EB84
:101810004504A4F13002401C074C245C302C03DB4F
:10182000054C245C392CEEDD5A43044C2160626087
:1018300030BD000008000020680000201C000020CF
:1018400070B504462948B0FBF4F63046FEF7DAFDE1
:1018500005462748806940F004002549886108460C
:10186000806940F4804088610846406940F001008A
:1018700048610846C06840F48040C8600846C068B7
:1018800020F48040C8601B48006820F47F6019493C
:1018900008600846006840F40B6008602846FEF7C0
:1018A000E0FD1549088014201449C8651248001F3E
:1018B0000866134848660846806D43F28101084374
:1018C0000E4988650C480C30008840F040000A49F9
:1018D0000C3108800223252200210120FFF7D6F9D0
:1018E00042F21C000449091D088070BD00A24A0490
:1018F0000010024004080140083801400000024086
:1019000040000020490050EAC12018BF04204A0DC1
:1019100018BF40F0010040F2FF72B2EB515F08BF08
:1019200040F00200012808BF052070472DE9F04172
:101930004F1E00EBC7010446D1E9000115461E46C3
:1019400037F006020DD02A463346FEF771FC7F1EA3
:1019500004EBC703D3E90023FEF786FE37F0060247
:10196000F1D1022F25D0042F13D0062F18BFBDE8C8
:10197000F0812A463346FEF75BFCD4E90A23FEF7E2
:1019800073FE2A463346FEF753FCD4E90823FEF7DC
:101990006BFE2A463346FEF74BFCD4E90623FEF7DE
:1019A00063FE2A463346FEF743FCD4E90423FEF7E0
:1019B0005BFE2A463346FEF73BFCD4E90223FEF7E2
:1019C00053FE2A463346FEF733FCD4E90023BDE834
:1019D000F041FEF749BE0122FEF781BFFEF744BE8B
:1019E000024A00201107FEF77ABF000001FDFFFF49
:1019F00002E008C8121F08C1002AFAD170477047D8
:101A0000002001E001C1121F002AFBD17047000035
:101A100001490860704700003C0000202DE9F84FA4
:101A200004460D4621F0004000917349814211DCCB
:101A30007249884201DC06D12CB120462946BDE816
:101A4000F84FFFF7C8BF6E48002DCCBF6D496E49F7
:101A5000BDE8F88F6D49814211DD6D498142D8BFE3
:101A60004FF0FF366DDD20462946FFF74BFF042877
:101A700008BFFFF7B5FF20462946BDE8F88F654946
:101A8000654F25F00045814233DD6449814219DD0F
:101A9000002632464FF0804320462946FEF7E4FDFB
:101AA00080468A46012220462946FEF718FF00227A
:101AB0003B46FEF77AFE42465346FEF72BFC0446B1
:101AC0000D463EE001260022BA463B462046294606
:101AD000FEF7CAFD80460F4600225346204629469F
:101AE000FEF763FE42463B46FEF714FC04460D46F5
:101AF00027E04B4981421BDDDFF828A102260022A6
:101B0000534620462946FEF793FB00223B46FEF74C
:101B1000ABFD80460F460022534620462946FEF77D
:101B200044FE42463B46FEF7F5FB04460D4608E000
:101B3000032622462B4600203B49FEF7EBFB0446DA
:101B40000D4622462B4610461946FEF771FB8B4682
:101B5000824602460B46FEF76BFB074602463348B9
:101B600088460B4606217844FFF7E0FE52465B4666
:101B7000FEF75EFB82462E488B463A4643460521D9
:101B80007844FFF7D3FE3A464346FEF751FB024640
:101B90000B46002E504659460CDAFEF765FD2246EC
:101BA0002B46FEF745FB01B022462B46BDE8F04F21
:101BB000FEF7FEBDFEF758FD22462B46FEF738FB2A
:101BC0001C4A7A4402EBC603D3E90023FEF7EDFD7D
:101BD00022462B46FEF7E9FD174A7A4402EBC6037C
:101BE000D3E90023FEF7E4FD009A002AB8BF81F094
:101BF0000041BDE8F88F0000000010440000F07FB5
:101C0000182D4454FB21F93FFB21F9BF0000DC3FB4
:101C10000000203E0000F33F0000F03F0000E63FE0
:101C2000008003400000F83F0000F0BF8603000082
:101C300044030000E2020000AA0200002DE9F04D7A
:101C40009446CCF1000423F000464CEA0404524FC1
:101C500046EAD4749A46884621F00042BC4206D82F
:101C6000454240EA050442EAD474BC4204D9BDE8C6
:101C7000F04D6246FFF7B2BEAAF14055A5F17F656F
:101C800055EA0C040BD0022404EAAA74434DDFF891
:101C900010E144EAD87452EA000B04D00CE0BDE82D
:101CA000F04DFFF7BBBE002C14BF012CBDE8F08D3A
:101CB000022C30D0032C32D056EA0C0B0AD0BE4294
:101CC00020D1BA4209D126F0804622F08042334624
:101CD000114617E000291ADB25E0DFF8C8B0FB4405
:101CE000002C04BFDBE90001BDE8F08D012C02BF30
:101CF000DBE9000181F00041BDE8F08D022C0AD043
:101D0000032C0CD0BA4212D1B8F1000F0BDA2348E1
:101D10002549BDE8F08D28462449BDE8F08D2846C8
:101D20007146BDE8F08D1D482149BDE8F08D921B3C
:101D300012153C2AC4BF19481D490EDCBAF1000F28
:101D4000BEBF12F13C0F0020014606DB6246FEF7E3
:101D5000E1FA21F00041FFF761FE002C08BFBDE869
:101D6000F08D012C04BF81F00041BDE8F08D114AD7
:101D7000114B022C07D0FEF718FD2A46BDE8F04DA6
:101D80000A4BFEF712BDFEF710FD2A46BDE8F04DE6
:101D9000064BFEF70DBD00000000F07F182D4454E7
:101DA000FB2109C03E020000FB21F9BFFB210940D5
:101DB000FB21F93F075C143326A6A13C4FF0E0213C
:101DC000096921F004014FF0E0221161C21700EB14
:101DD0005272C2F3C702074B1A701946097801EB19
:101DE0004102C2EBC1114FF6FF7202EAC101024A81
:101DF0001180704700000020020000200920FFF73A
:101E000093F84820FFF7DAFFFEF780FDFEF7F4FFB6
:101E1000FFF792F9FFF7D0F809E00548007808B11C
:101E2000FFF7B4FC0348007808B1FEF71DFEF4E7A5
:101E300008000020050000202DE9F04106460F466D
:101E4000FEF7B9FC04000D4618BF0120284320F01E
:101E50000040C0F17F6000F1E040C00F0ED0301CA8
:101E600018BF0120384320F00040C0F17F6000F12E
:101E7000E040C00F04BF0120FFF7CAFD20462946FD
:101E8000BDE8F081000000004FBB610567ACDD3F9D
:101E9000182D4454FB21E93F9BF681D20B73EF3F91
:101EA000182D4454FB21F93FE2652F227F2B7A3C09
:101EB000075C143326A6813CBDCBF07A8807703CC2
:101EC000075C143326A6913CC4EB98999999C9BF35
:101ED000711623FEC671BCBF6D9A74AFF2B0B3BF6A
:101EE0009AFDDE522DDEADBF2F6C6A2C44B4A2BF2A
:101EF0000D5555555555D53FFF8300922449C23F96
:101F00006E204CC5CD45B73F513DD0A0660DB13FC9
:101F1000EB0D76244B7BA93F11DA22E33AAD903FDB
:101F20000000000000000000481F00080000002022
:101F300040000000F0190008881F00084000002041
:101F4000F0040000001A000800000000000000007B
:101F50000000000000000000000000000000000081
:101F60000000000000000000000000000000000071
:101F70000000000000000000000000000000000061
:081F8000000000000000000059
:04000005080000ED02
:00000001FF
