:020000040800F2
:10000000480500200101000805010008070100085B
:10001000090100080B0100080D01000800000000A4
:100020000000000000000000000000000F010008B8
:10003000110100080000000013010008150100086C
:100040001701000817010008170100081701000830
:100050001701000817010008170100081701000820
:100060001701000817010008170100081701000810
:100070001701000817010008170100081701000800
:1000800017010008170100081701000817010008F0
:1000900017010008170100081701000817010008E0
:1000A00017010008F91100081701000817010008DE
:1000B000170100083D120008170100081701000889
:1000C00017010008170100081701000817010008B0
:1000D00017010008B1130008E51400088115000895
:1000E000170100081701000817010008DFF80CD0FD
:1000F00000F0B2FB004800475521000848050020E9
:1001000005480047FEE7FEE7FEE7FEE7FEE7FEE7FD
:10011000FEE7FEE7FEE7FEE7ED000008F0B480EA48
:100120000102D40F4200B2EB410F02D20246084650
:1001300011464A0042D0C30DDDB2C1F3C752AD1A19
:10014000202D35DAC1F3160141F4000204B1524208
:10015000C5F1200602FA06F12A411044B3EBD05F44
:1001600023D0C4B1012DA0EBC35009DCF0BC4FF08B
:10017000004202EAC352DBB200F5000000F0E9B928
:10018000400000F1807000EBC350A0F1807040EAA5
:10019000D170490009E0490841EAC071A0EBC350A1
:1001A00000F50000400800EBC350F0BC00F0C8B9F7
:1001B0006142012202EB4101001BF6E7F0BC7047EF
:1001C00081F00041AAE780F00040A7E780EA010241
:1001D00010B502F00043400022D04A001FD0010EAB
:1001E00001EB1261C0F35600C2F3560240F4000066
:1001F00042F40002A0FB022000047F39140400D066
:10020000401C50EA124001D44000491EC2B20C0604
:1002100004EBD010401C4008802A02D003E00020EC
:1002200010BD20F00100002900DA0020184310BDA5
:100230002DE9FE4F81EA030404F0004421F000415F
:1002400000944FF0000B23F0004350EA01045ED00D
:1002500052EA03045BD0C3F30A54C1F30A552C4499
:10026000A4F2F3340194A0FB0254C1F3130141F44E
:100270008011C3F3130343F4801301FB024400FB1A
:10028000034E840A970A44EA815447EA8357A4FB41
:10029000076802958D0A05FB07854FEA932C04FB3E
:1002A0000C542705029D4FEA065847EA1637B5EB6E
:1002B00008056EEB070C870E920E47EA811742EA9B
:1002C0008312A7FB0201B6EB0B0164EB00042B0DBC
:1002D00043EA0C335E1844EB1C50DA465146E7FB08
:1002E0000201C5F313044FEA0B3343EA14534FEAF8
:1002F0000432019C43EA0603A4F10C040294009C1E
:10030000CDE900B400F062F903B0BDE8F08F002041
:100310000146F9E72DE9F04D81EA030404F0004BB2
:1003200021F0004514464FF0000A23F0004150EA46
:10033000050220D054EA01021DD0C5F30A57024637
:10034000C5F31303C1F31300C1F30A5640F480153B
:1003500043F48013A7EB0608101BD64608F2FD38BD
:1003600073EB050002D308F1010801E092185B412C
:10037000B8F1000F03DA00200146BDE8F08D00203F
:100380004FF48011064684460EE0171B73EB0507F9
:1003900005D3121B63EB050306434CEA010C490825
:1003A0004FEA300092185B4150EA0107EDD152EA62
:1003B000030012D082EA040083EA0501084305D055
:1003C000101BAB4106D20122002306E000224FF0B1
:1003D000004302E06FF0010253101AEB06004CEBF1
:1003E000085110EB0A0041EB0B01BDE8F04D00F0A5
:1003F000DEB8C10F80EAE0700844CA0796230021E6
:1004000000F0A7B896230022114600F0A2B80EB55E
:10041000C10F80EAE0700844CA07002140F233436C
:100420008DE80E000A460B4600F0D0F803B000BD80
:1004300000F0004220F00040C10DC0F3160040F46F
:1004400000007F2901DA00207047962903DCC1F102
:100450009601C84001E096398840002AF4D0404215
:10046000704720F00040C10DC0F3160040F40000BA
:100470007F2901DA00207047962903DCC1F196013B
:10048000C840704796398840704700F0004230F00D
:1004900000400AD0C10D01F56071C0F3160042EAB8
:1004A0000151C208400711437047002001467047C0
:1004B00030B5041E71F1000404DB4FF000444042EB
:1004C00064EB0101141E73F1000405DB1C464FF0C0
:1004D0000043524263EB04038B4208BF824230BDAB
:1004E00001F0004330B421F0004150EA010206D08F
:1004F0000A0DA2F56072C1F31301002A02DC30BCC0
:1005000000207047440F44EAC104C100E01830BC29
:1005100000EBC25000F014B8002801DBC0F100402D
:10052000002901DBC1F1004181427047002801DB55
:10053000C0F10040002901DBC1F100418842704751
:100540000029A8BF7047401C490008BF20F00100E7
:10055000704710B4B0FA80FC00FA0CF050EA0104C5
:1005600004BF10BC704749B1CCF1200421FA04F457
:1005700011FA0CF118BF012121430843A3EB0C0130
:10058000CB1D4FEA00614FEA102042BF002010BC93
:10059000704700EBC35010440029A4BF10BC704743
:1005A000401C490008BF20F0010010BC704710B586
:1005B000141E73F1000408DA401C41F10001921886
:1005C0005B411A4301D120F0010010BD2DE9F04D2F
:1005D00092469B4611B1B1FA81F202E0B0FA80F284
:1005E0002032904600F04AF904460F4640EA0A00DD
:1005F00041EA0B0153465A46084313D0114653EAC9
:10060000010019D0C8F14002504600F046F90546F5
:100610000E4650465946424600F030F9084305D090
:10062000012004E020463946BDE8F08D0020054356
:1006300046EAE0762C4337430A986305E40AA0EBC8
:1006400008000022FD0A44EA47540A3002D500207F
:100650000146E9E7010510196941DDE9084500197E
:100660006941BDE8F04DA2E72DE9FE4F804681EAE1
:100670000300C00F0C46009021F0004123F000451C
:10068000B8EB0200A94105D24046214690461C46DF
:100690000B46024623F00040104347D0270DC7F316
:1006A0000A00C3F30A510290401A019040286BDA05
:1006B000C3F3130040F4801B0098924620B100233E
:1006C000D2EB030A63EB0B0B01985946C0F14002D1
:1006D000504600F0D3F806460D4650465946019A5A
:1006E00000F0EBF810EB08006141002487EA11529A
:1006F00084EAE7731A4340D0009A62B3019A012A50
:100700004FEA075215DC001B61EB02014FF000427B
:1007100002EA0752CDE90042001C41F58011324641
:100720002B46FFF753FF03B0BDE8F08F404621464C
:10073000F9E7001B61EB0201001C41F58013001872
:100740005B412018A2F5001747EB030140EAD57082
:10075000B6196D4111E06D084FEA360645EAC075DD
:100760004FEA0752001B61EB0201001C41F58011AA
:1007700049084FEA30000019514132462B4603B078
:10078000BDE8F04FFFF713BF00980122400000239F
:10079000D0EB020263EBE073009821464FEAE0746D
:1007A000B8EB000061EB0401E9E783F000435BE78D
:1007B00081F0004158E72DE9F04D00231A461B1A3D
:1007C0008A4103DB00200146BDE8F08DC1F30A52E7
:1007D000C1F3130141F480154FF0000BD10702D192
:1007E00000186D41521E0027044640F2FF113846A2
:1007F00001EB620A3E468046024600204FF480111B
:1008000000F04BF8C2197141BB1846EB0100B4EB84
:10081000030C75EB000C04D3E41A65EB00051746D6
:100820000E46241908F101006D4180463428E3DDAD
:10083000F91946EB0600091BA84103D24FF0FF321D
:10084000134601E0002213461BEB070046EB0A515A
:10085000BDE8F04DFFF7ABBE064C074D06E0E06883
:1008600040F0010394E8070098471034AC42F6D3F7
:10087000FFF740FC7822000898220008202A04DBB9
:10088000203A00FA02F1002070479140C2F12003A3
:1008900020FA03F3194390407047202A04DB203AE2
:1008A00021FA02F00021704721FA02F3D040C2F190
:1008B00020029140084319467047202A06DBCB17D7
:1008C000203A41FA02F043EAE07306E041FA02F30B
:1008D000D040C2F12002914008431946704770B5DC
:1008E00021F0004303430CD0C1F30A550024D5EB9B
:1008F000040564EB0403D617AD1AB34102DB0020F4
:10090000014670BD201841EB025170BD10B500F0DA
:1009100047F84FF4165001F03FF94FF4E13000F082
:1009200085FF4FF4E13000F017F9482144F62060CC
:1009300000F0ECFC482142F2107000F047FA482128
:1009400044F6206000F0B8FC00BF0548007830B9DC
:100950000448007818B9044800780028F5D010BD84
:1009600005000020080000200A00002010B5002328
:10097000002105E00948405C184483B2481CC1B21C
:100980000829F7DB0548407A044C247A40EA04221F
:100990009A4201D1012010BD0020FCE74400002054
:1009A0000848806940F008000649886106480068E8
:1009B00020F0FF00044908600846006840F033005A
:1009C0000860704700100240000C014070B50446FA
:1009D0002248016A2046FFF79FFD19D81F48016A87
:1009E0002046FFF7F0FB05461D49FFF79FFD09D2A2
:1009F0001A48016A2046FFF7E6FB05461949FFF74A
:100A0000DFFB70BD1548016A2046FFF7DCFBF8E705
:100A10001249086A1349FFF781FB06462146FFF792
:100A2000CFFB05460E49FFF781FD0DD20B49086A41
:100A30000C49FFF773FB06462146FFF7C1FB05464D
:100A40000849FFF7BDFBDCE70449086A0549FFF7E1
:100A500065FB05462146FFF7B3FBD2E70C010020FA
:100A6000000034430000B44310B500203149087041
:100A7000314800785E285BD12F4840780C2857D148
:100A80002D488078002853D1FFF770FF00284FD001
:100A900000F0FEFA2848C07803281ED1002027491C
:100AA0000870274800682749086025484068486062
:100AB000214840792049097940EA0120224908600B
:100AC0001D48C0791C49897940EA01201E494860C7
:100AD00000F026FB00F00CFF2AE01748C078012840
:100AE00018D1154840791449097940EA012017497D
:100AF00008601148C0791049897940EA01201349FA
:100B000048600120124908700020124908700B4902
:100B100008700DE00848C078062802D100F052FBAA
:100B200006E00548C078022802D100200349087079
:100B300010BD000005000020440000201D00002022
:100B40002000002028000020300000203800002075
:100B50001C0000201B00002070B504462948B0FB93
:100B6000F4F63046FFF74EFC05462748806940F012
:100B70000800254988610846C06940F48020C861A2
:100B80000846406940F0010048610846006940F4A9
:100B9000802008610846006920F4802008611B4815
:100BA000006820F47F40194908600846006840F456
:100BB0000B4008602846FFF754FC15490880422086
:100BC000144948631248001F88631348C8630846E5
:100BD000006B43F2810108430E4908630C480C3056
:100BE000008840F040000A490C3108800223272287
:100BF0000121002000F090F842F21C000449091D78
:100C0000088070BD0051250200100240040C014014
:100C100008480040000002409E0000202DE9F047F7
:100C20000446D4E90010FFF7CBFAA0604FF08040F3
:100C3000E168FFF7CBFA8246A168FFF7C4FA814664
:100C40002169FFF76BFA8046E169FFF7BFFA0646B4
:100C5000A168A069FFF7BAFA8146D4E90201FFF75B
:100C6000AFFA82466169FFF7B1FA80464946FFF75D
:100C700055FA07463146FFF751FA0546A16AFFF7D4
:100C80004DFAA062E0682061A068E060216AA06A75
:100C9000FFF74CFC02D2206AA06206E0D4E90910FA
:100CA000FFF73AFC01D2606AA062A06ABDE8F08753
:100CB00000B5002015490861C86014204861002073
:100CC0008861C8610846006840F001000860084675
:100CD00040680F4908400D494860084600680D49C2
:100CE00008400A4908600846006820F4802008602F
:100CF0000846406820F4FE0048600020886000211B
:100D00004FF0006000F058F800BD000000100240F5
:100D10000000FFF8FFFFF6FE2DE9F0410746884688
:100D200014461D46284600F033F8C5F1040007FAC2
:100D300000F60F20284100EA0800064306F00F06DF
:100D4000E21704EBD2625211920002F1E022D2F8D3
:100D500000212146E31704EBD3635B11A4EB431C92
:100D6000012303FA0CF31A432046E31704EBD36381
:100D70005B119B0003F1E023C3F800210348005DF1
:100D800040EA061001490855BDE8F08100E400E0A2
:100D90000146072323EA01021202054B18684FF6A9
:100DA000FF031840034B18431043014B1860704772
:100DB0000CED00E00000FA05024A0A400243024B33
:100DC0001A60704780FFFF1F08ED00E0204AD269DB
:100DD00042F001021E4BDA611A46926942F00802A3
:100DE0009A611C4A126822F0FF021A4B1A601A46D6
:100DF000126842F0BB021A60421EDB049A854A1E4A
:100E00001A851A46128B42F060021A831A46128B18
:100E100042F008021A831A46128C42F001021A8428
:100E20001A46128B42F4C0421A831A46128B42F4BD
:100E300000621A831A46128C42F010021A84802231
:100E40001A80D205128842F001021A807047000011
:100E500000100240000801400022044B1A70044AAE
:100E6000106051600022034B1A6070471D00002083
:100E700010000020E00000202DE9F04F85B02E4941
:100E800009682E4A1268881AFFF7B3FA04902C49B1
:100E900049682A4A5268881AFFF7ABFA0390049807
:100EA000FFF7F3FACDE900010398FFF7EEFA824667
:100EB000DDE9002301F06EF880460022214BFFF7A8
:100EC000B7F90646204A214BFFF724FA0446FFF7FC
:100ED00007FB02904FF47A600299FFF7BDFF039978
:100EE0000846FFF773F9814604990846FFF76EF943
:100EF00082464946FFF712F90446FFF7C6FA07464D
:100F000001F044F905460022114BFFF7D1FA10D247
:100F10000A4800680A49086001200E4908700E4816
:100F2000007818B901200D49087002E001200C4931
:100F3000087005B0BDE8F08F3000002020000020D0
:100F40002800002000806640A7E8482EFF210940C5
:100F500000002440190000201A0000201800002082
:100F60001B0000202DE9F04F85B02E4909682E4A5C
:100F70001268881AFFF73DFA04902C4949682A4AFA
:100F80005268881AFFF735FA03900498FFF77DFA44
:100F9000CDE900010398FFF778FA8246DDE90023E6
:100FA00000F0F8FF80460022214BFFF741F906468A
:100FB000204A214BFFF7AEF90446FFF791FA029061
:100FC0004FF47A600299FFF747FF03990846FFF74D
:100FD000FDF8814604990846FFF7F8F8824649462D
:100FE000FFF79CF80446FFF750FA074601F0CEF8E9
:100FF00005460022114BFFF75BFA10D20A48406801
:101000000849486001200E4908700E48007818B958
:1010100000200D49087002E001200C49087005B05D
:10102000BDE8F08F280000202000002030000020C4
:1010300000806640A7E8482EFF21094000002440B8
:101040001A00002019000020180000201B000020BA
:10105000002141608160C1600161704700B50748AF
:1010600007494861074888610020C861064808624E
:10107000064848620846FFF7EBFF00BD0000C84283
:10108000E00000205C8F423E00401C4600401CC631
:1010900010B500F05DF9002405E00449085D00F09A
:1010A00013FA601CC4B20A2CF7DB10BD300100201B
:1010B0000022144B1A70002809DA42F2107202441E
:1010C0004FF080439A8601220F4B1A6005E04FF0E3
:1010D0008043988600220C4B1A6000290ADA42F2FB
:1010E00010720A444FF080431A870122064B1B1DE1
:1010F0001A6006E04FF0804319870022024B1B1D47
:101100001A6070471D00002080812142034800883A
:1011100020F001000149088070470000002C0140C8
:101120000348008840F00100014908807047000032
:10113000002C014030B504460025FFF7B9FD1F48DB
:10114000006840F480301D49086000BF1B480068FB
:10115000400C0028FAD04FF4806018494860A01E67
:10116000C4B20846406840EA844048600846406887
:1011700040F4803048601248006840F03200104966
:1011800008600E48006840F080700C49086000BF9D
:101190000A480068400E0028FAD00848406840F02D
:1011A00002000649486005E004484068C0F387052E
:1011B00005F00305022DF7D130BD000000100240FC
:1011C0000020024010B501200749087000204FF0B0
:1011D000804188860887054908600549C1F884016F
:1011E0000448FFF735FF10BD1D000020808121421B
:1011F00000802142E000002010B50C48008800F07B
:10120000010060B10A4800681430094908600948C3
:10121000007820B90848007808B900F069FB034855
:10122000008820F001000149088010BD102C014009
:101230000C0000201D0000201B00002070B5194884
:10124000008800F0010028B31748007810BB174849
:101250000078F8B916494868FFF7B8FB15494860A7
:101260000846FFF7DBFC0546FFF7E2F80446201EC0
:1012700001DB014600E04142B1F5FA7F02DA0D4898
:10128000FFF7E6FE0A4A1268111B094A1268101994
:10129000FFF70EFF0348008820F001000149088095
:1012A00070BD0000100400401D0000201B00002045
:1012B00010000020E000002070B505460C461148E3
:1012C000C06940F002000F49C861681E0E490880DD
:1012D000601E091F08800C482038008840F001007B
:1012E00009492039088002231D2201210846FFF701
:1012F00013FD05482C38008840F0010002492C39C4
:10130000088070BD001002402C04004070B50546F6
:101310000C460D48806940F400600B498861681EE6
:101320000A490880601E091F088008482038008884
:1013300040F001000549203908800223192219468E
:101340001846FFF7E9FC70BD001002402C2C01404C
:1013500010B500205E22144B1A700C225A70002225
:101360009A700422DA70114A12781A7100225A71A6
:101370009A71DA71002105E00B4A525C024490B286
:101380004A1CD1B20729F7DD0246C31700EB1363ED
:101390001B0A054C2372C31700EB13631B12A0EB4F
:1013A0000323637210BD00003001002018000020EC
:1013B0003E49098801F0080141B13C49091D0988ED
:1013C0003A49098821F00801384A118037490988CB
:1013D00001F01001002968D034490C31098821F04E
:1013E0002001324A0C32118030490988304A11708C
:1013F0002E49091D098811702E49C96DC1F11401CA
:1014000011702C49896D21F001012A4A916514213E
:10141000D165274909780A2903D10121264A11708B
:1014200035E023490978254A127811440A291ED14A
:10143000002008E02249095C204A12780244214B2E
:101440009954411CC8B21A4909788842F2DB00203D
:1014500005E01C49095C1A4A1154411CC8B21449E0
:1014600009788842F5DB0121134A11700FE0104919
:101470000978124A1170002005E01149095C114AEF
:101480001154411CC8B20A4909788842F5DB094960
:10149000896D41F00101074A916504490C310988C1
:1014A00041F02001014A0C321180704700380140A0
:1014B000040000200000024005000020060000207B
:1014C000440000205800002000BF0549098801F0B1
:1014D00040010029F9D00249091D08807047000029
:1014E000003801402248008800F0080050B1204830
:1014F00000881F48001D00881D48008820F0080053
:101500001B4908801A48008800F0100070B3184882
:101510000C30008820F0200015490C310880144858
:101520000088144908701248001D0088087012488D
:10153000C06E20F001001049C8660846006FC0F177
:1015400032000C49087001200C49087032200A4909
:1015500008670846C06E40F00100C86604480C30B9
:10156000008840F0200002490C31088070470000DC
:101570000044004007000020000002400800002056
:101580002DE9F05F9D48008800F0080040B19B48BD
:10159000001D00889948008820F0080097490880BD
:1015A0009648008800F0100000287DD093480C3049
:1015B000008820F0200091490C3108808F48008875
:1015C0008F4908708D48001D008808708D48406B59
:1015D000C0F1420008708B48006B20F0010089497F
:1015E0000863422048638648007821287ED1012084
:1015F000854908708548407851285BD18349C9786E
:10160000090209B2814A927841EA0200FEF7FFFE20
:10161000064600227E4BFEF77DFE044600227D4BEF
:10162000FEF706FE82467C4A7C4BFEF701FE8046B2
:10163000FEF756FF7A49086074494979090209B2F0
:10164000724A127941EA0200FEF7E1FE804600226A
:101650006F4BFEF75FFE064600226E4BFEF7E8FD7D
:1016600004466D4A6D4BFEF7E3FD8246FEF738FFF8
:101670006B4948606549C979090209B2634A9279A0
:1016800041EA0200FEF7C3FE80460022604BFEF7EF
:1016900041FE064600225F4BFEF7CAFD04465E4A45
:1016A0005E4BFEF7C5FD00E0A6E08246FEF718FFA0
:1016B0005B4988605548007B522846D15349497B95
:1016C000524A927B41EA0220FEF7A1FE80460022A8
:1016D0004F4BFEF71FFE06460022524BFEF7A8FDB9
:1016E0000446FEF7FDFE4E49C86000E076E047493B
:1016F000C97B464A127C41EA0220FEF788FE8046FA
:101700000022434BFEF706FE06460022454BFEF73D
:101710008FFD0446FEF7E4FE414908613B49497CE0
:101720003A4A927C41EA0220FEF771FE804600228E
:10173000374BFEF7EFFD064600223A4BFEF778FDE9
:101740000446FEF7CDFE364948613048C07D532837
:1017500044D12E49097E2D4A527E41EA0220FEF7ED
:1017600056FE804600222A4BFEF7D4FD0646002294
:101770002D4BFEF75DFD0446FEF7B2FE2849886159
:101780002249897E214AD27E41EA0220FEF73FFEAD
:10179000064600221E4BFEF7BDFD80460022224B6E
:1017A000FEF746FD0446FEF79BFE1D49C86117493A
:1017B000097F164A527F41EA0220FEF728FE804642
:1017C0000022134BFEF7A6FD06460022164BFEF73D
:1017D0002FFD0446FEF784FE114908620948006B9C
:1017E00040F001000749086304480C30008840F0CD
:1017F000200002490C310880BDE8F09F00480040FD
:1018000009000020000002400A0000209E00002085
:101810000000E040000030409A999999999923403E
:101820000C01002000409F400080664070B50446D7
:101830002948B0FBF4F63046FEF7E4FD054627489C
:10184000806940F00400254988610846C06940F479
:101850000030C8610846406940F001004861084610
:10186000006940F4003008610846006920F4003047
:1018700008611B48006820F47F4019490860084649
:10188000006840F40B4008602846FEF7EAFD154961
:1018900008803220144908671248001F486713481F
:1018A00088670846C06E43F2810108430E49C86646
:1018B0000C480C30008840F040000A490C31088088
:1018C0000223262200210846FFF726FA42F21C00D6
:1018D0000449091D088070BD005125020010024016
:1018E0000008014008440040000002406C00002055
:1018F0002DE9F04F85B06D48007800285AD06C492A
:1019000009686C4A1268881AFEF773FD83466849B5
:101910004968684A5268881AFEF76BFD0490584679
:10192000FEF7B3FD804689460498FEF7AEFD4246B9
:101930004B46CDE9000100F02DFB00225E4BCDE9C6
:101940000201FEF775FC06465C4A5D4BFEF7E2FCC1
:101950000446FEF7C5FD824604990846FEF736FCAC
:10196000814659465846FEF731FC49460390FEF73A
:10197000D5FB8046FEF789FD064600F007FC0446CD
:101980000022504BFEF794FD0ED24A4800684E49A3
:10199000086048484068486000204C4908704C493D
:1019A0000870424908707DE051464FF47A60FFF7B5
:1019B00053FA77E0474909683E4A1268881AFEF7E9
:1019C00018FD8346434949683A4A5268881AFEF727
:1019D00010FD049004990846FEF7F8FB814659462D
:1019E0005846FEF7F3FB49460390FEF797FB804607
:1019F000FEF74BFD064600F0C9FB04460022314BC2
:101A0000FEF756FD07D2FFF7DDFBFFF77FFB012056
:101A10003149087046E004990846FEF7D7FB814635
:101A200059465846FEF7D2FB49460390FEF776FB2F
:101A30008046FEF72AFD064600F0A8FB0446002279
:101A4000264BFEF735FD21D25846FEF71EFDCDE9A7
:101A500000010498FEF719FD8046DDE9002300F03F
:101A600099FA0022144BCDE90201FEF7E1FB06468C
:101A7000124A134BFEF74EFC0446FEF731FD824638
:101A800051464FF47A60FFF7E7F90BE0144800780D
:101A900010B9FFF7F1F905E011480078012801D1EC
:101AA000FFF760FA05B0BDE8F08F00001C000020D1
:101AB000380000202000002000806640A7E8482E63
:101AC000FF210940000024402800002019000020C8
:101AD0001A000020300000201B00002000004940B8
:101AE0001800002030B50021002201230024274DDA
:101AF0002C70002006E0264C245C2D2C01D14FF0E8
:101B0000FF33401C224C245C302CF4DB204C245C42
:101B1000392CF0DC08E01E4C245C01EB810504EB61
:101B20004504A4F13001401C194C245C302C03DB2B
:101B3000174C245C392CEEDD5943012306E0144C8C
:101B4000245C2D2C01D14FF0FF33401C104C245C41
:101B5000302CF4DB0E4C245C392CF0DC08E00C4C0F
:101B6000245C02EB820504EB4504A4F13002401C26
:101B7000074C245C302C03DB054C245C392CEEDD57
:101B80005A43044C2160626030BD00000800002010
:101B90006C0000202000002070B504462948B0FBEE
:101BA000F4F63046FEF72EFC05462748806940F0E3
:101BB0000400254988610846806940F480408861B6
:101BC0000846406940F0010048610846C06840F49A
:101BD0008040C8600846C06820F48040C8601B4848
:101BE000006820F47F60194908600846006840F4E6
:101BF0000B6008602846FEF734FC15490880142065
:101C00001449C8651248001F08661348486608460C
:101C1000806D43F2810108430E4988650C480C3001
:101C2000008840F040000A490C3108800223252238
:101C300000210120FFF770F842F21C000449091D41
:101C4000088070BD00A24A04001002400408014050
:101C5000083801400000024044000020490050EADA
:101C6000C12018BF04204A0D18BF40F0010040F207
:101C7000FF72B2EB515F08BF40F00200012808BFBD
:101C8000052070472DE9F0414F1E00EBC7010446C7
:101C9000D1E9000115461E4637F006020DD02A464E
:101CA0003346FEF7C5FA7F1E04EBC703D3E90023D2
:101CB000FEF7DAFC37F00602F1D1022F25D0042F0F
:101CC00013D0062F18BFBDE8F0812A463346FEF731
:101CD000AFFAD4E90A23FEF7C7FC2A463346FEF7DB
:101CE000A7FAD4E90823FEF7BFFC2A463346FEF7DD
:101CF0009FFAD4E90623FEF7B7FC2A463346FEF7DF
:101D000097FAD4E90423FEF7AFFC2A463346FEF7E0
:101D10008FFAD4E90223FEF7A7FC2A463346FEF7E2
:101D200087FAD4E90023BDE8F041FEF79DBC01220B
:101D3000FEF7D5BDFEF798BC024A00201107FEF75A
:101D4000CEBD000001FDFFFF02E008C8121F08C160
:101D5000002AFAD170477047002001E001C1121F2C
:101D6000002AFBD17047000001490860704700005D
:101D7000400000202DE9F84F04460D4621F00040B8
:101D800000917349814211DC7249884201DC06D11D
:101D90002CB120462946BDE8F84FFFF7C8BF6E4872
:101DA000002DCCBF6D496E49BDE8F88F6D49814269
:101DB00011DD6D498142D8BF4FF0FF366DDD204601
:101DC0002946FFF74BFF042808BFFFF7B5FF204661
:101DD0002946BDE8F88F6549654F25F000458142E9
:101DE00033DD6449814219DD002632464FF08043DD
:101DF00020462946FEF738FC80468A4601222046C6
:101E00002946FEF76CFD00223B46FEF7CEFC42461B
:101E10005346FEF77FFA04460D463EE001260022B7
:101E2000BA463B4620462946FEF71EFC80460F4632
:101E30000022534620462946FEF7B7FC42463B4661
:101E4000FEF768FA04460D4627E04B4981421BDD48
:101E5000DFF828A102260022534620462946FEF735
:101E6000E7F900223B46FEF7FFFB80460F460022C3
:101E7000534620462946FEF798FC42463B46FEF76D
:101E800049FA04460D4608E0032622462B46002068
:101E90003B49FEF73FFA04460D4622462B461046C4
:101EA0001946FEF7C5F98B46824602460B46FEF7F9
:101EB000BFF907460246334888460B460621784458
:101EC000FFF7E0FE52465B46FEF7B2F982462E4827
:101ED0008B463A46434605217844FFF7D3FE3A46FF
:101EE0004346FEF7A5F902460B46002E50465946DA
:101EF0000CDAFEF7B9FB22462B46FEF799F901B042
:101F000022462B46BDE8F04FFEF752BCFEF7ACFB75
:101F100022462B46FEF78CF91C4A7A4402EBC60394
:101F2000D3E90023FEF741FC22462B46FEF73DFC99
:101F3000174A7A4402EBC603D3E90023FEF738FCC4
:101F4000009A002AB8BF81F00041BDE8F88F000078
:101F5000000010440000F07F182D4454FB21F93F8D
:101F6000FB21F9BF0000DC3F0000203E0000F33FF2
:101F70000000F03F0000E63F008003400000F83F13
:101F80000000F0BF7E0300003C030000DA02000006
:101F9000A20200002DE9F04D9446CCF1000423F09C
:101FA00000464CEA0404524F46EAD4749A468846E6
:101FB00021F00042BC4206D8454240EA050442EA0C
:101FC000D474BC4204D9BDE8F04D6246FFF7B2BEFE
:101FD000AAF14055A5F17F6555EA0C040BD0022407
:101FE00004EAAA74434DDFF810E144EAD87452EAD7
:101FF000000B04D00CE0BDE8F04DFFF7BBBE002C99
:1020000014BF012CBDE8F08D022C30D0032C32D04F
:1020100056EA0C0B0AD0BE4220D1BA4209D126F0B2
:10202000804622F080423346114617E000291ADB31
:1020300025E0DFF8C8B0FB44002C04BFDBE9000159
:10204000BDE8F08D012C02BFDBE9000181F0004109
:10205000BDE8F08D022C0AD0032C0CD0BA4212D16C
:10206000B8F1000F0BDA23482549BDE8F08D28466A
:102070002449BDE8F08D28467146BDE8F08D1D4825
:102080002149BDE8F08D921B12153C2AC4BF1948A6
:102090001D490EDCBAF1000FBEBF12F13C0F00204B
:1020A000014606DB6246FEF735F921F00041FFF7F5
:1020B00061FE002C08BFBDE8F08D012C04BF81F04B
:1020C0000041BDE8F08D114A114B022C07D0FEF7FC
:1020D0006CFB2A46BDE8F04D0A4BFEF766BBFEF7E7
:1020E00064FB2A46BDE8F04D064BFEF761BB0000DD
:1020F0000000F07F182D4454FB2109C03602000077
:10210000FB21F9BFFB210940FB21F93F075C143398
:1021100026A6A13C4FF0E021096921F004014FF00F
:10212000E0221161C21700EB5272C2F3C702074BE3
:102130001A701946097801EB4102C2EBC1114FF642
:10214000FF7202EAC101024A1180704700000020BC
:10215000020000200920FEF7EDFF4820FFF7DAFF1C
:10216000FEF7D4FBFEF77AFFFFF72CF809E00548ED
:10217000007808B1FFF7B6FC0348007808B1FEF715
:1021800073FCF4E708000020050000202DE9F04171
:1021900006460F46FEF70FFB04000D4618BF012050
:1021A000284320F00040C0F17F6000F1E040C00F04
:1021B0000ED0301C18BF0120384320F00040C0F181
:1021C0007F6000F1E040C00F04BF0120FFF7CCFDAD
:1021D00020462946BDE8F0814FBB610567ACDD3F75
:1021E000182D4454FB21E93F9BF681D20B73EF3F3E
:1021F000182D4454FB21F93FE2652F227F2B7A3CB6
:10220000075C143326A6813CBDCBF07A8807703C6E
:10221000075C143326A6913CC4EB98999999C9BFE1
:10222000711623FEC671BCBF6D9A74AFF2B0B3BF16
:102230009AFDDE522DDEADBF2F6C6A2C44B4A2BFD6
:102240000D5555555555D53FFF8300922449C23F42
:102250006E204CC5CD45B73F513DD0A0660DB13F76
:10226000EB0D76244B7BA93F11DA22E33AAD903F88
:10227000000000000000000098220008000000207C
:1022800044000000481D0008DC2200084400002033
:1022900004050000581D00080000000000000000B8
:1022A000000000000000000000000000000000002E
:1022B000010000000000000000000000000000001D
:1022C000000000000000000000000000000000000E
:0C22D00000000000000000000000000002
:04000005080000ED02
:00000001FF
